{"abi":[{"type":"constructor","inputs":[{"name":"_usdtAddress","type":"address","internalType":"address"}],"stateMutability":"nonpayable"},{"type":"function","name":"Allowance","inputs":[{"name":"","type":"address","internalType":"address"}],"outputs":[{"name":"","type":"uint256","internalType":"uint256"}],"stateMutability":"view"},{"type":"function","name":"adminUnFreezeUSDT","inputs":[{"name":"_addr","type":"address","internalType":"address"},{"name":"_amount","type":"uint256","internalType":"uint256"}],"outputs":[],"stateMutability":"nonpayable"},{"type":"function","name":"availableUSDT","inputs":[{"name":"","type":"address","internalType":"address"}],"outputs":[{"name":"","type":"uint256","internalType":"uint256"}],"stateMutability":"view"},{"type":"function","name":"cancelTrade","inputs":[{"name":"_tradeID","type":"string","internalType":"string"}],"outputs":[],"stateMutability":"nonpayable"},{"type":"function","name":"checkAllowance","inputs":[{"name":"_addr","type":"address","internalType":"address"}],"outputs":[{"name":"","type":"uint256","internalType":"uint256"}],"stateMutability":"view"},{"type":"function","name":"checkAvailableUSDT","inputs":[{"name":"_addr","type":"address","internalType":"address"}],"outputs":[{"name":"","type":"uint256","internalType":"uint256"}],"stateMutability":"view"},{"type":"function","name":"checkFreezeAllowance","inputs":[{"name":"_addr","type":"address","internalType":"address"}],"outputs":[{"name":"","type":"uint256","internalType":"uint256"}],"stateMutability":"view"},{"type":"function","name":"checkStatus","inputs":[{"name":"_tradeID","type":"string","internalType":"string"}],"outputs":[{"name":"","type":"bool","internalType":"bool"}],"stateMutability":"view"},{"type":"function","name":"checkfrozenUSDT","inputs":[{"name":"_addr","type":"address","internalType":"address"}],"outputs":[{"name":"","type":"uint256","internalType":"uint256"}],"stateMutability":"view"},{"type":"function","name":"deposit","inputs":[{"name":"_amount","type":"uint256","internalType":"uint256"}],"outputs":[],"stateMutability":"nonpayable"},{"type":"function","name":"freezeAllowance","inputs":[{"name":"_addr","type":"address","internalType":"address"},{"name":"_amount","type":"uint256","internalType":"uint256"}],"outputs":[],"stateMutability":"nonpayable"},{"type":"function","name":"frozenAllowance","inputs":[{"name":"","type":"address","internalType":"address"}],"outputs":[{"name":"","type":"uint256","internalType":"uint256"}],"stateMutability":"view"},{"type":"function","name":"frozenUSDT","inputs":[{"name":"","type":"address","internalType":"address"}],"outputs":[{"name":"","type":"uint256","internalType":"uint256"}],"stateMutability":"view"},{"type":"function","name":"getTradeInfo","inputs":[{"name":"_tradeID","type":"string","internalType":"string"}],"outputs":[{"name":"seller","type":"address","internalType":"address"},{"name":"sellamount","type":"uint256","internalType":"uint256"},{"name":"minPrice","type":"uint256","internalType":"uint256"},{"name":"starttime","type":"uint256","internalType":"uint256"},{"name":"endtime","type":"uint256","internalType":"uint256"},{"name":"status","type":"bool","internalType":"bool"},{"name":"highestBidder","type":"address","internalType":"address"},{"name":"highestPrice","type":"uint256","internalType":"uint256"}],"stateMutability":"view"},{"type":"function","name":"getbid","inputs":[{"name":"_tradeID","type":"string","internalType":"string"},{"name":"_addr","type":"address","internalType":"address"}],"outputs":[{"name":"","type":"uint256","internalType":"uint256"}],"stateMutability":"view"},{"type":"function","name":"issueAllowance","inputs":[{"name":"_addr","type":"address","internalType":"address"},{"name":"_amount","type":"uint256","internalType":"uint256"}],"outputs":[],"stateMutability":"nonpayable"},{"type":"function","name":"owner","inputs":[],"outputs":[{"name":"","type":"address","internalType":"address"}],"stateMutability":"view"},{"type":"function","name":"setbid","inputs":[{"name":"_tradeID","type":"string","internalType":"string"},{"name":"_price","type":"uint256","internalType":"uint256"}],"outputs":[],"stateMutability":"nonpayable"},{"type":"function","name":"settleTrade","inputs":[{"name":"_tradeID","type":"string","internalType":"string"}],"outputs":[],"stateMutability":"nonpayable"},{"type":"function","name":"startTrade","inputs":[{"name":"_tradeID","type":"string","internalType":"string"},{"name":"_sellamount","type":"uint256","internalType":"uint256"},{"name":"_minPrice","type":"uint256","internalType":"uint256"},{"name":"_starttime","type":"uint256","internalType":"uint256"},{"name":"_endtime","type":"uint256","internalType":"uint256"}],"outputs":[],"stateMutability":"nonpayable"},{"type":"function","name":"trades","inputs":[{"name":"","type":"string","internalType":"string"}],"outputs":[{"name":"tradeID","type":"string","internalType":"string"},{"name":"seller","type":"address","internalType":"address"},{"name":"sellamount","type":"uint256","internalType":"uint256"},{"name":"minPrice","type":"uint256","internalType":"uint256"},{"name":"starttime","type":"uint256","internalType":"uint256"},{"name":"endtime","type":"uint256","internalType":"uint256"},{"name":"status","type":"bool","internalType":"bool"},{"name":"highestBidder","type":"address","internalType":"address"},{"name":"highestPrice","type":"uint256","internalType":"uint256"}],"stateMutability":"view"},{"type":"function","name":"unFreezeAllowance","inputs":[{"name":"_addr","type":"address","internalType":"address"},{"name":"_amount","type":"uint256","internalType":"uint256"}],"outputs":[],"stateMutability":"nonpayable"},{"type":"function","name":"usdtToken","inputs":[],"outputs":[{"name":"","type":"address","internalType":"contract IERC20"}],"stateMutability":"view"},{"type":"function","name":"userTrades","inputs":[{"name":"","type":"address","internalType":"address"},{"name":"","type":"uint256","internalType":"uint256"}],"outputs":[{"name":"","type":"string","internalType":"string"}],"stateMutability":"view"},{"type":"function","name":"withdraw","inputs":[{"name":"_amount","type":"uint256","internalType":"uint256"}],"outputs":[],"stateMutability":"nonpayable"},{"type":"function","name":"withdrawAll","inputs":[],"outputs":[],"stateMutability":"nonpayable"},{"type":"error","name":"CarbonTrade_001_InsufficientBalance","inputs":[]},{"type":"error","name":"CarbonTrade_001_NoDeposit","inputs":[]},{"type":"error","name":"CarbonTrade_001_NotOwner","inputs":[]},{"type":"error","name":"CarbonTrade_001_NotSeller","inputs":[]},{"type":"error","name":"CarbonTrade_001_ParamsInvalid","inputs":[]},{"type":"error","name":"CarbonTrade_001_TradeClosed","inputs":[]},{"type":"error","name":"CarbonTrade_001_TradeNotEnded","inputs":[]},{"type":"error","name":"CarbonTrade_001_TransferFailed","inputs":[]}],"bytecode":{"object":"0x608060405234801561000f575f5ffd5b50604051612e02380380612e0283398181016040528101906100319190610114565b335f5f6101000a81548173ffffffffffffffffffffffffffffffffffffffff021916908373ffffffffffffffffffffffffffffffffffffffff1602179055508060015f6101000a81548173ffffffffffffffffffffffffffffffffffffffff021916908373ffffffffffffffffffffffffffffffffffffffff1602179055505061013f565b5f5ffd5b5f73ffffffffffffffffffffffffffffffffffffffff82169050919050565b5f6100e3826100ba565b9050919050565b6100f3816100d9565b81146100fd575f5ffd5b50565b5f8151905061010e816100ea565b92915050565b5f60208284031215610129576101286100b6565b5b5f61013684828501610100565b91505092915050565b612cb68061014c5f395ff3fe608060405234801561000f575f5ffd5b506004361061018c575f3560e01c80638da5cb5b116100dc578063b6b55f2511610095578063cff2aa761161006f578063cff2aa76146104ce578063d107a5cc146104fe578063e8db5e431461051a578063fad1b8cf146105365761018c565b8063b6b55f2514610466578063b71454b214610482578063cee7ae5c1461049e5761018c565b80638da5cb5b1461036a5780639a57642e14610388578063a98ad46c146103b8578063af70fe33146103d6578063b16328c114610406578063b1b1ffab146104365761018c565b806347a041001161014957806377536c6d1161012357806377536c6d146102d057806377cb9a7a1461030057806378c6b1e514610330578063853828b6146103605761018c565b806347a04100146102605780635b338fba14610298578063733da7c8146102b45761018c565b806319ec73e0146101905780631a197a26146101ac5780631ed7a3fc146101dc5780632e1a7d4d146101f857806339e020211461021457806344b0a99514610230575b5f5ffd5b6101aa60048036038101906101a59190612235565b61056d565b005b6101c660048036038101906101c19190612273565b61069c565b6040516101d391906122ad565b60405180910390f35b6101f660048036038101906101f19190612402565b6106e2565b005b610212600480360381019061020d9190612449565b610c62565b005b61022e60048036038101906102299190612474565b610e40565b005b61024a60048036038101906102459190612402565b6110e7565b60405161025791906124e8565b60405180910390f35b61027a60048036038101906102759190612402565b61111d565b60405161028f99989796959493929190612570565b60405180910390f35b6102b260048036038101906102ad9190612235565b611250565b005b6102ce60048036038101906102c99190612235565b6112e3565b005b6102ea60048036038101906102e59190612273565b6113bf565b6040516102f791906122ad565b60405180910390f35b61031a60048036038101906103159190612273565b6113d4565b60405161032791906122ad565b60405180910390f35b61034a60048036038101906103459190612602565b6113e9565b60405161035791906122ad565b60405180910390f35b61036861144f565b005b6103726114d5565b60405161037f919061265c565b60405180910390f35b6103a2600480360381019061039d9190612273565b6114f9565b6040516103af91906122ad565b60405180910390f35b6103c061150e565b6040516103cd91906126d0565b60405180910390f35b6103f060048036038101906103eb9190612273565b611533565b6040516103fd91906122ad565b60405180910390f35b610420600480360381019061041b9190612273565b611579565b60405161042d91906122ad565b60405180910390f35b610450600480360381019061044b9190612235565b61158e565b60405161045d91906126e9565b60405180910390f35b610480600480360381019061047b9190612449565b61163f565b005b61049c60048036038101906104979190612402565b6117a8565b005b6104b860048036038101906104b39190612273565b611a95565b6040516104c591906122ad565b60405180910390f35b6104e860048036038101906104e39190612273565b611adb565b6040516104f591906122ad565b60405180910390f35b61051860048036038101906105139190612235565b611b21565b005b610534600480360381019061052f9190612709565b611c50565b005b610550600480360381019061054b9190612402565b611f8b565b60405161056498979695949392919061279c565b60405180910390f35b5f5f9054906101000a900473ffffffffffffffffffffffffffffffffffffffff1673ffffffffffffffffffffffffffffffffffffffff163373ffffffffffffffffffffffffffffffffffffffff16146105f2576040517fd2fc9db900000000000000000000000000000000000000000000000000000000815260040160405180910390fd5b8060035f8473ffffffffffffffffffffffffffffffffffffffff1673ffffffffffffffffffffffffffffffffffffffff1681526020019081526020015f205f82825461063e9190612845565b925050819055508060025f8473ffffffffffffffffffffffffffffffffffffffff1673ffffffffffffffffffffffffffffffffffffffff1681526020019081526020015f205f8282546106919190612878565b925050819055505050565b5f60025f8373ffffffffffffffffffffffffffffffffffffffff1673ffffffffffffffffffffffffffffffffffffffff1681526020019081526020015f20549050919050565b5f6004826040516106f391906128e5565b90815260200160405180910390209050806001015f9054906101000a900473ffffffffffffffffffffffffffffffffffffffff1673ffffffffffffffffffffffffffffffffffffffff163373ffffffffffffffffffffffffffffffffffffffff16141580156107ae57505f5f9054906101000a900473ffffffffffffffffffffffffffffffffffffffff1673ffffffffffffffffffffffffffffffffffffffff163373ffffffffffffffffffffffffffffffffffffffff1614155b156107e5576040517f43af466100000000000000000000000000000000000000000000000000000000815260040160405180910390fd5b5f1515816006015f9054906101000a900460ff16151503610832576040517f37bf96ea00000000000000000000000000000000000000000000000000000000815260040160405180910390fd5b8060050154421115801561089257505f5f9054906101000a900473ffffffffffffffffffffffffffffffffffffffff1673ffffffffffffffffffffffffffffffffffffffff163373ffffffffffffffffffffffffffffffffffffffff1614155b80156108ee57505f73ffffffffffffffffffffffffffffffffffffffff168160060160019054906101000a900473ffffffffffffffffffffffffffffffffffffffff1673ffffffffffffffffffffffffffffffffffffffff1614155b15610925576040517f38b2f83700000000000000000000000000000000000000000000000000000000815260040160405180910390fd5b5f816006015f6101000a81548160ff0219169083151502179055505f73ffffffffffffffffffffffffffffffffffffffff168160060160019054906101000a900473ffffffffffffffffffffffffffffffffffffffff1673ffffffffffffffffffffffffffffffffffffffff1614610b69575f8160060160019054906101000a900473ffffffffffffffffffffffffffffffffffffffff1690505f826002015490505f836007015490508060075f8573ffffffffffffffffffffffffffffffffffffffff1673ffffffffffffffffffffffffffffffffffffffff1681526020019081526020015f205f828254610a1b9190612845565b925050819055508060065f866001015f9054906101000a900473ffffffffffffffffffffffffffffffffffffffff1673ffffffffffffffffffffffffffffffffffffffff1673ffffffffffffffffffffffffffffffffffffffff1681526020019081526020015f205f828254610a919190612878565b925050819055508160035f866001015f9054906101000a900473ffffffffffffffffffffffffffffffffffffffff1673ffffffffffffffffffffffffffffffffffffffff1673ffffffffffffffffffffffffffffffffffffffff1681526020019081526020015f205f828254610b079190612845565b925050819055508160025f8573ffffffffffffffffffffffffffffffffffffffff1673ffffffffffffffffffffffffffffffffffffffff1681526020019081526020015f205f828254610b5a9190612878565b92505081905550505050610c5e565b806002015460035f836001015f9054906101000a900473ffffffffffffffffffffffffffffffffffffffff1673ffffffffffffffffffffffffffffffffffffffff1673ffffffffffffffffffffffffffffffffffffffff1681526020019081526020015f205f828254610bdc9190612845565b92505081905550806002015460025f836001015f9054906101000a900473ffffffffffffffffffffffffffffffffffffffff1673ffffffffffffffffffffffffffffffffffffffff1673ffffffffffffffffffffffffffffffffffffffff1681526020019081526020015f205f828254610c569190612878565b925050819055505b5050565b5f8111610c9b576040517f071781ef00000000000000000000000000000000000000000000000000000000815260040160405180910390fd5b8060065f3373ffffffffffffffffffffffffffffffffffffffff1673ffffffffffffffffffffffffffffffffffffffff1681526020019081526020015f20541015610d12576040517ff63f52d000000000000000000000000000000000000000000000000000000000815260040160405180910390fd5b8060065f3373ffffffffffffffffffffffffffffffffffffffff1673ffffffffffffffffffffffffffffffffffffffff1681526020019081526020015f205f828254610d5e9190612845565b925050819055505f151560015f9054906101000a900473ffffffffffffffffffffffffffffffffffffffff1673ffffffffffffffffffffffffffffffffffffffff1663a9059cbb33846040518363ffffffff1660e01b8152600401610dc49291906128fb565b6020604051808303815f875af1158015610de0573d5f5f3e3d5ffd5b505050506040513d601f19601f82011682018060405250810190610e04919061294c565b151503610e3d576040517f2ddab5f000000000000000000000000000000000000000000000000000000000815260040160405180910390fd5b50565b5f600483604051610e5191906128e5565b908152602001604051809103902090505f1515816006015f9054906101000a900460ff16151503610eae576040517f37bf96ea00000000000000000000000000000000000000000000000000000000815260040160405180910390fd5b8060040154421080610ec35750806005015442115b15610efa576040517f071781ef00000000000000000000000000000000000000000000000000000000815260040160405180910390fd5b8060030154821080610f10575080600701548211155b15610f47576040517f071781ef00000000000000000000000000000000000000000000000000000000815260040160405180910390fd5b8160065f3373ffffffffffffffffffffffffffffffffffffffff1673ffffffffffffffffffffffffffffffffffffffff1681526020019081526020015f20541015610fbe576040517ff63f52d000000000000000000000000000000000000000000000000000000000815260040160405180910390fd5b5f73ffffffffffffffffffffffffffffffffffffffff168160060160019054906101000a900473ffffffffffffffffffffffffffffffffffffffff1673ffffffffffffffffffffffffffffffffffffffff1614611048576110478160060160019054906101000a900473ffffffffffffffffffffffffffffffffffffffff168260070154612043565b5b61105233836120ed565b81816008015f3373ffffffffffffffffffffffffffffffffffffffff1673ffffffffffffffffffffffffffffffffffffffff1681526020019081526020015f2081905550338160060160016101000a81548173ffffffffffffffffffffffffffffffffffffffff021916908373ffffffffffffffffffffffffffffffffffffffff160217905550818160070181905550505050565b5f6004826040516110f891906128e5565b90815260200160405180910390206006015f9054906101000a900460ff169050919050565b6004818051602081018201805184825260208301602085012081835280955050505050505f91509050805f018054611154906129a4565b80601f0160208091040260200160405190810160405280929190818152602001828054611180906129a4565b80156111cb5780601f106111a2576101008083540402835291602001916111cb565b820191905f5260205f20905b8154815290600101906020018083116111ae57829003601f168201915b505050505090806001015f9054906101000a900473ffffffffffffffffffffffffffffffffffffffff1690806002015490806003015490806004015490806005015490806006015f9054906101000a900460ff16908060060160019054906101000a900473ffffffffffffffffffffffffffffffffffffffff16908060070154905089565b5f5f9054906101000a900473ffffffffffffffffffffffffffffffffffffffff1673ffffffffffffffffffffffffffffffffffffffff163373ffffffffffffffffffffffffffffffffffffffff16146112d5576040517fd2fc9db900000000000000000000000000000000000000000000000000000000815260040160405180910390fd5b6112df8282612043565b5050565b5f5f9054906101000a900473ffffffffffffffffffffffffffffffffffffffff1673ffffffffffffffffffffffffffffffffffffffff163373ffffffffffffffffffffffffffffffffffffffff1614611368576040517fd2fc9db900000000000000000000000000000000000000000000000000000000815260040160405180910390fd5b8060025f8473ffffffffffffffffffffffffffffffffffffffff1673ffffffffffffffffffffffffffffffffffffffff1681526020019081526020015f205f8282546113b49190612878565b925050819055505050565b6007602052805f5260405f205f915090505481565b6002602052805f5260405f205f915090505481565b5f6004836040516113fa91906128e5565b90815260200160405180910390206008015f8373ffffffffffffffffffffffffffffffffffffffff1673ffffffffffffffffffffffffffffffffffffffff1681526020019081526020015f2054905092915050565b5f60065f3373ffffffffffffffffffffffffffffffffffffffff1673ffffffffffffffffffffffffffffffffffffffff1681526020019081526020015f205490505f81036114c9576040517ff63f52d000000000000000000000000000000000000000000000000000000000815260040160405180910390fd5b6114d281610c62565b50565b5f5f9054906101000a900473ffffffffffffffffffffffffffffffffffffffff1681565b6006602052805f5260405f205f915090505481565b60015f9054906101000a900473ffffffffffffffffffffffffffffffffffffffff1681565b5f60075f8373ffffffffffffffffffffffffffffffffffffffff1673ffffffffffffffffffffffffffffffffffffffff1681526020019081526020015f20549050919050565b6003602052805f5260405f205f915090505481565b6005602052815f5260405f2081815481106115a7575f80fd5b905f5260205f20015f915091505080546115c0906129a4565b80601f01602080910402602001604051908101604052809291908181526020018280546115ec906129a4565b80156116375780601f1061160e57610100808354040283529160200191611637565b820191905f5260205f20905b81548152906001019060200180831161161a57829003601f168201915b505050505081565b5f8111611678576040517f071781ef00000000000000000000000000000000000000000000000000000000815260040160405180910390fd5b5f151560015f9054906101000a900473ffffffffffffffffffffffffffffffffffffffff1673ffffffffffffffffffffffffffffffffffffffff166323b872dd3330856040518463ffffffff1660e01b81526004016116d9939291906129d4565b6020604051808303815f875af11580156116f5573d5f5f3e3d5ffd5b505050506040513d601f19601f82011682018060405250810190611719919061294c565b151503611752576040517f2ddab5f000000000000000000000000000000000000000000000000000000000815260040160405180910390fd5b8060065f3373ffffffffffffffffffffffffffffffffffffffff1673ffffffffffffffffffffffffffffffffffffffff1681526020019081526020015f205f82825461179e9190612878565b9250508190555050565b5f6004826040516117b991906128e5565b90815260200160405180910390209050806001015f9054906101000a900473ffffffffffffffffffffffffffffffffffffffff1673ffffffffffffffffffffffffffffffffffffffff163373ffffffffffffffffffffffffffffffffffffffff161415801561187457505f5f9054906101000a900473ffffffffffffffffffffffffffffffffffffffff1673ffffffffffffffffffffffffffffffffffffffff163373ffffffffffffffffffffffffffffffffffffffff1614155b156118ab576040517f43af466100000000000000000000000000000000000000000000000000000000815260040160405180910390fd5b5f1515816006015f9054906101000a900460ff161515036118f8576040517f37bf96ea00000000000000000000000000000000000000000000000000000000815260040160405180910390fd5b5f816006015f6101000a81548160ff0219169083151502179055505f73ffffffffffffffffffffffffffffffffffffffff168160060160019054906101000a900473ffffffffffffffffffffffffffffffffffffffff1673ffffffffffffffffffffffffffffffffffffffff161461199d5761199c8160060160019054906101000a900473ffffffffffffffffffffffffffffffffffffffff168260070154612043565b5b806002015460035f836001015f9054906101000a900473ffffffffffffffffffffffffffffffffffffffff1673ffffffffffffffffffffffffffffffffffffffff1673ffffffffffffffffffffffffffffffffffffffff1681526020019081526020015f205f828254611a109190612845565b92505081905550806002015460025f836001015f9054906101000a900473ffffffffffffffffffffffffffffffffffffffff1673ffffffffffffffffffffffffffffffffffffffff1673ffffffffffffffffffffffffffffffffffffffff1681526020019081526020015f205f828254611a8a9190612878565b925050819055505050565b5f60035f8373ffffffffffffffffffffffffffffffffffffffff1673ffffffffffffffffffffffffffffffffffffffff1681526020019081526020015f20549050919050565b5f60065f8373ffffffffffffffffffffffffffffffffffffffff1673ffffffffffffffffffffffffffffffffffffffff1681526020019081526020015f20549050919050565b5f5f9054906101000a900473ffffffffffffffffffffffffffffffffffffffff1673ffffffffffffffffffffffffffffffffffffffff163373ffffffffffffffffffffffffffffffffffffffff1614611ba6576040517fd2fc9db900000000000000000000000000000000000000000000000000000000815260040160405180910390fd5b8060035f8473ffffffffffffffffffffffffffffffffffffffff1673ffffffffffffffffffffffffffffffffffffffff1681526020019081526020015f205f828254611bf29190612878565b925050819055508060025f8473ffffffffffffffffffffffffffffffffffffffff1673ffffffffffffffffffffffffffffffffffffffff1681526020019081526020015f205f828254611c459190612845565b925050819055505050565b5f84111580611c5e57505f83145b80611c695750808210155b15611ca0576040517f071781ef00000000000000000000000000000000000000000000000000000000815260040160405180910390fd5b5f73ffffffffffffffffffffffffffffffffffffffff16600486604051611cc791906128e5565b90815260200160405180910390206001015f9054906101000a900473ffffffffffffffffffffffffffffffffffffffff1673ffffffffffffffffffffffffffffffffffffffff1614611d45576040517f071781ef00000000000000000000000000000000000000000000000000000000815260040160405180910390fd5b5f600486604051611d5691906128e5565b9081526020016040518091039020905085815f019081611d769190612bb1565b5033816001015f6101000a81548173ffffffffffffffffffffffffffffffffffffffff021916908373ffffffffffffffffffffffffffffffffffffffff1602179055508481600201819055508381600301819055508281600401819055508181600501819055506001816006015f6101000a81548160ff02191690831515021790555060055f3373ffffffffffffffffffffffffffffffffffffffff1673ffffffffffffffffffffffffffffffffffffffff1681526020019081526020015f2086908060018154018082558091505060019003905f5260205f20015f909190919091509081611e659190612bb1565b508460025f3373ffffffffffffffffffffffffffffffffffffffff1673ffffffffffffffffffffffffffffffffffffffff1681526020019081526020015f20541015611edd576040517fa8da18cf00000000000000000000000000000000000000000000000000000000815260040160405180910390fd5b8460025f3373ffffffffffffffffffffffffffffffffffffffff1673ffffffffffffffffffffffffffffffffffffffff1681526020019081526020015f205f828254611f299190612845565b925050819055508460035f3373ffffffffffffffffffffffffffffffffffffffff1673ffffffffffffffffffffffffffffffffffffffff1681526020019081526020015f205f828254611f7c9190612878565b92505081905550505050505050565b5f5f5f5f5f5f5f5f5f60048a604051611fa491906128e5565b90815260200160405180910390209050806001015f9054906101000a900473ffffffffffffffffffffffffffffffffffffffff168160020154826003015483600401548460050154856006015f9054906101000a900460ff168660060160019054906101000a900473ffffffffffffffffffffffffffffffffffffffff1687600701549850985098509850985098509850985050919395975091939597565b8060075f8473ffffffffffffffffffffffffffffffffffffffff1673ffffffffffffffffffffffffffffffffffffffff1681526020019081526020015f205f82825461208f9190612845565b925050819055508060065f8473ffffffffffffffffffffffffffffffffffffffff1673ffffffffffffffffffffffffffffffffffffffff1681526020019081526020015f205f8282546120e29190612878565b925050819055505050565b8060065f8473ffffffffffffffffffffffffffffffffffffffff1673ffffffffffffffffffffffffffffffffffffffff1681526020019081526020015f205f8282546121399190612845565b925050819055508060075f8473ffffffffffffffffffffffffffffffffffffffff1673ffffffffffffffffffffffffffffffffffffffff1681526020019081526020015f205f82825461218c9190612878565b925050819055505050565b5f604051905090565b5f5ffd5b5f5ffd5b5f73ffffffffffffffffffffffffffffffffffffffff82169050919050565b5f6121d1826121a8565b9050919050565b6121e1816121c7565b81146121eb575f5ffd5b50565b5f813590506121fc816121d8565b92915050565b5f819050919050565b61221481612202565b811461221e575f5ffd5b50565b5f8135905061222f8161220b565b92915050565b5f5f6040838503121561224b5761224a6121a0565b5b5f612258858286016121ee565b925050602061226985828601612221565b9150509250929050565b5f60208284031215612288576122876121a0565b5b5f612295848285016121ee565b91505092915050565b6122a781612202565b82525050565b5f6020820190506122c05f83018461229e565b92915050565b5f5ffd5b5f5ffd5b5f601f19601f8301169050919050565b7f4e487b71000000000000000000000000000000000000000000000000000000005f52604160045260245ffd5b612314826122ce565b810181811067ffffffffffffffff82111715612333576123326122de565b5b80604052505050565b5f612345612197565b9050612351828261230b565b919050565b5f67ffffffffffffffff8211156123705761236f6122de565b5b612379826122ce565b9050602081019050919050565b828183375f83830152505050565b5f6123a66123a184612356565b61233c565b9050828152602081018484840111156123c2576123c16122ca565b5b6123cd848285612386565b509392505050565b5f82601f8301126123e9576123e86122c6565b5b81356123f9848260208601612394565b91505092915050565b5f60208284031215612417576124166121a0565b5b5f82013567ffffffffffffffff811115612434576124336121a4565b5b612440848285016123d5565b91505092915050565b5f6020828403121561245e5761245d6121a0565b5b5f61246b84828501612221565b91505092915050565b5f5f6040838503121561248a576124896121a0565b5b5f83013567ffffffffffffffff8111156124a7576124a66121a4565b5b6124b3858286016123d5565b92505060206124c485828601612221565b9150509250929050565b5f8115159050919050565b6124e2816124ce565b82525050565b5f6020820190506124fb5f8301846124d9565b92915050565b5f81519050919050565b5f82825260208201905092915050565b8281835e5f83830152505050565b5f61253382612501565b61253d818561250b565b935061254d81856020860161251b565b612556816122ce565b840191505092915050565b61256a816121c7565b82525050565b5f610120820190508181035f830152612589818c612529565b9050612598602083018b612561565b6125a5604083018a61229e565b6125b2606083018961229e565b6125bf608083018861229e565b6125cc60a083018761229e565b6125d960c08301866124d9565b6125e660e0830185612561565b6125f461010083018461229e565b9a9950505050505050505050565b5f5f60408385031215612618576126176121a0565b5b5f83013567ffffffffffffffff811115612635576126346121a4565b5b612641858286016123d5565b9250506020612652858286016121ee565b9150509250929050565b5f60208201905061266f5f830184612561565b92915050565b5f819050919050565b5f61269861269361268e846121a8565b612675565b6121a8565b9050919050565b5f6126a98261267e565b9050919050565b5f6126ba8261269f565b9050919050565b6126ca816126b0565b82525050565b5f6020820190506126e35f8301846126c1565b92915050565b5f6020820190508181035f8301526127018184612529565b905092915050565b5f5f5f5f5f60a08688031215612722576127216121a0565b5b5f86013567ffffffffffffffff81111561273f5761273e6121a4565b5b61274b888289016123d5565b955050602061275c88828901612221565b945050604061276d88828901612221565b935050606061277e88828901612221565b925050608061278f88828901612221565b9150509295509295909350565b5f610100820190506127b05f83018b612561565b6127bd602083018a61229e565b6127ca604083018961229e565b6127d7606083018861229e565b6127e4608083018761229e565b6127f160a08301866124d9565b6127fe60c0830185612561565b61280b60e083018461229e565b9998505050505050505050565b7f4e487b71000000000000000000000000000000000000000000000000000000005f52601160045260245ffd5b5f61284f82612202565b915061285a83612202565b925082820390508181111561287257612871612818565b5b92915050565b5f61288282612202565b915061288d83612202565b92508282019050808211156128a5576128a4612818565b5b92915050565b5f81905092915050565b5f6128bf82612501565b6128c981856128ab565b93506128d981856020860161251b565b80840191505092915050565b5f6128f082846128b5565b915081905092915050565b5f60408201905061290e5f830185612561565b61291b602083018461229e565b9392505050565b61292b816124ce565b8114612935575f5ffd5b50565b5f8151905061294681612922565b92915050565b5f60208284031215612961576129606121a0565b5b5f61296e84828501612938565b91505092915050565b7f4e487b71000000000000000000000000000000000000000000000000000000005f52602260045260245ffd5b5f60028204905060018216806129bb57607f821691505b6020821081036129ce576129cd612977565b5b50919050565b5f6060820190506129e75f830186612561565b6129f46020830185612561565b612a01604083018461229e565b949350505050565b5f819050815f5260205f209050919050565b5f6020601f8301049050919050565b5f82821b905092915050565b5f60088302612a657fffffffffffffffffffffffffffffffffffffffffffffffffffffffffffffffff82612a2a565b612a6f8683612a2a565b95508019841693508086168417925050509392505050565b5f612aa1612a9c612a9784612202565b612675565b612202565b9050919050565b5f819050919050565b612aba83612a87565b612ace612ac682612aa8565b848454612a36565b825550505050565b5f5f905090565b612ae5612ad6565b612af0818484612ab1565b505050565b5f5b82811015612b1657612b0b5f828401612add565b600181019050612af7565b505050565b601f821115612b695782821115612b6857612b3581612a09565b612b3e83612a1b565b612b4785612a1b565b6020861015612b54575f90505b808301612b6382840382612af5565b505050505b5b505050565b5f82821c905092915050565b5f612b895f1984600802612b6e565b1980831691505092915050565b5f612ba18383612b7a565b9150826002028217905092915050565b612bba82612501565b67ffffffffffffffff811115612bd357612bd26122de565b5b612bdd82546129a4565b612be8828285612b1b565b5f60209050601f831160018114612c19575f8415612c07578287015190505b612c118582612b96565b865550612c78565b601f198416612c2786612a09565b5f5b82811015612c4e57848901518255600182019150602085019450602081019050612c29565b86831015612c6b5784890151612c67601f891682612b7a565b8355505b6001600288020188555050505b50505050505056fea2646970667358221220f251c063c95d15d3e33bf33ffaf1810839aef5240f5cf006034d8f28760b47f364736f6c63430008210033","linkReferences":{}},"methodIdentifiers":{"Allowance(address)":"77cb9a7a","adminUnFreezeUSDT(address,uint256)":"5b338fba","availableUSDT(address)":"9a57642e","cancelTrade(string)":"b71454b2","checkAllowance(address)":"1a197a26","checkAvailableUSDT(address)":"cff2aa76","checkFreezeAllowance(address)":"cee7ae5c","checkStatus(string)":"44b0a995","checkfrozenUSDT(address)":"af70fe33","deposit(uint256)":"b6b55f25","freezeAllowance(address,uint256)":"d107a5cc","frozenAllowance(address)":"b16328c1","frozenUSDT(address)":"77536c6d","getTradeInfo(string)":"fad1b8cf","getbid(string,address)":"78c6b1e5","issueAllowance(address,uint256)":"733da7c8","owner()":"8da5cb5b","setbid(string,uint256)":"39e02021","settleTrade(string)":"1ed7a3fc","startTrade(string,uint256,uint256,uint256,uint256)":"e8db5e43","trades(string)":"47a04100","unFreezeAllowance(address,uint256)":"19ec73e0","usdtToken()":"a98ad46c","userTrades(address,uint256)":"b1b1ffab","withdraw(uint256)":"2e1a7d4d","withdrawAll()":"853828b6"},"id":25}